{
    "contractName": "Gemstone",
    "abi": [
        {
            "inputs": [],
            "stateMutability": "nonpayable",
            "type": "constructor"
        },
        {
            "inputs": [
                {
                    "internalType": "address",
                    "name": "customerAddress",
                    "type": "address"
                }
            ],
            "name": "isEligibleToMintGoblet",
            "outputs": [
                {
                    "internalType": "bool",
                    "name": "",
                    "type": "bool"
                }
            ],
            "stateMutability": "view",
            "type": "function"
        },
        {
            "inputs": [
                {
                    "internalType": "uint256",
                    "name": "gemType",
                    "type": "uint256"
                }
            ],
            "name": "isGemstoneAvailable",
            "outputs": [
                {
                    "internalType": "bool",
                    "name": "",
                    "type": "bool"
                }
            ],
            "stateMutability": "view",
            "type": "function"
        },
        {
            "inputs": [
                {
                    "internalType": "address",
                    "name": "customerAddress",
                    "type": "address"
                },
                {
                    "internalType": "uint256",
                    "name": "gemType",
                    "type": "uint256"
                }
            ],
            "name": "isGemstoneMinted",
            "outputs": [
                {
                    "internalType": "bool",
                    "name": "",
                    "type": "bool"
                }
            ],
            "stateMutability": "view",
            "type": "function"
        }
    ],
    "bytecode": "60a06040523480156200001157600080fd5b50336080526200002062000030565b6200002a620001ea565b620005de565b604080516000808252602080830193849052908052600290525162000077917fac33ff75c19e70fe83507db0d683fd3465c996598dc972688b7ace676c89077b9162000547565b5060408051600080825260208083019384905260019091526002905251620000c1917fe90b7bceb6e7df5418fb78d8ee546e97c83a08bbccc01a0644d599ccd2a7c2e09162000547565b50604080516000808252602080830193849052600291829052525162000109917f679795a0195a1b76cdebb7c51d74e058aee92919b8c3389af86ef24535e8a28c9162000547565b506040805160008082526020808301938490526003909152600290525162000153917f88601476d11616a71c5be67555bd1dff4b1cbf21533d2669b768b61518cfe1c39162000547565b50604080516000808252602080830193849052600490915260029052516200019d917fee60d0579bcffd98e668647d59fec1ff86a7fb340ce572e844f234ae73a6918f9162000547565b5060408051600080825260208083019384905260059091526002905251620001e7917fb98b78633099fa36ed8b8680c4f8092689e1e04080eb9cbb077ca38a14d7e3849162000547565b50565b6040805160608101825260008082526032602083015291810182905260018054808201825592819052815160039093027fb10e2d527612073b26eecdfd717e6a320cf44b4afac2b0732d9fcbe2b7fa0cf6018054929390929091839160ff191690836005811115620002605762000260620005c8565b02179055506020820151816001015560408201518160020155505060016040518060600160405280600160058111156200029e576200029e620005c8565b815260326020808301919091526000604090920182905283546001818101865594835291208251600390920201805492939092839160ff1990911690836005811115620002ef57620002ef620005c8565b02179055506020820151816001015560408201518160020155505060016040518060600160405280600260058111156200032d576200032d620005c8565b815260326020808301919091526000604090920182905283546001818101865594835291208251600390920201805492939092839160ff19909116908360058111156200037e576200037e620005c8565b0217905550602082015181600101556040820151816002015550506001604051806060016040528060036005811115620003bc57620003bc620005c8565b815260326020808301919091526000604090920182905283546001818101865594835291208251600390920201805492939092839160ff19909116908360058111156200040d576200040d620005c8565b02179055506020820151816001015560408201518160020155505060016040518060600160405280600460058111156200044b576200044b620005c8565b815260326020808301919091526000604090920182905283546001818101865594835291208251600390920201805492939092839160ff19909116908360058111156200049c576200049c620005c8565b02179055506020820151816001015560408201518160020155505060016040518060600160405280600580811115620004d957620004d9620005c8565b815260326020808301919091526000604090920182905283546001818101865594835291208251600390920201805492939092839160ff19909116908360058111156200052a576200052a620005c8565b021790555060208201518160010155604082015181600201555050565b8280548282559060005260206000209081019282156200059f579160200282015b828111156200059f57825182546001600160a01b0319166001600160a01b0390911617825560209092019160019091019062000568565b50620005ad929150620005b1565b5090565b5b80821115620005ad5760008155600101620005b2565b634e487b7160e01b600052602160045260246000fd5b608051610485620005f7600039600050506104856000f3fe608060405234801561001057600080fd5b50600436106100415760003560e01c806333c091e6146100465780635ce4e64f1461006d578063a3eee32d14610080575b600080fd5b610059610054366004610360565b610093565b604051901515815260200160405180910390f35b61005961007b366004610382565b6101a6565b61005961008e3660046103ac565b6102e5565b600080805b6001600160a01b03841660009081526003602052604090205481101561019c576001600160a01b03841660009081526003602052604081208054839081106100e2576100e26103c5565b90600052602060002090600502016040518060a00160405290816000820160009054906101000a900460ff16600581111561011f5761011f6103db565b6005811115610130576101306103db565b815260018201546020820152600282015460408201526003820154606082015260049091015460ff16151560809182015281015190915015806101765750806060015142115b1561018957610186600184610407565b92505b50806101948161041f565b915050610098565b5060061492915050565b600060058211156101b657600080fd5b6000805b6001600160a01b0385166000908152600360205260409020548110156102dd576001600160a01b0385166000908152600360205260408120805483908110610204576102046103c5565b90600052602060002090600502016040518060a00160405290816000820160009054906101000a900460ff166005811115610241576102416103db565b6005811115610252576102526103db565b815260018201546020820152600282015460408201526003820154606082015260049091015460ff1615156080909101529050846005811115610297576102976103db565b60058111156102a8576102a86103db565b815160058111156102bb576102bb6103db565b036102ca5760019250506102dd565b50806102d58161041f565b9150506101ba565b509392505050565b600060018083815481106102fb576102fb6103c5565b9060005260206000209060030201600101546103179190610438565b6001838154811061032a5761032a6103c5565b906000526020600020906003020160020154109050919050565b80356001600160a01b038116811461035b57600080fd5b919050565b60006020828403121561037257600080fd5b61037b82610344565b9392505050565b6000806040838503121561039557600080fd5b61039e83610344565b946020939093013593505050565b6000602082840312156103be57600080fd5b5035919050565b634e487b7160e01b600052603260045260246000fd5b634e487b7160e01b600052602160045260246000fd5b634e487b7160e01b600052601160045260246000fd5b6000821982111561041a5761041a6103f1565b500190565b600060018201610431576104316103f1565b5060010190565b60008282101561044a5761044a6103f1565b50039056fea2646970667358221220f9ac8417dbe60f06db49f37c7261e5e54748cede88ef0629d6fe0f6ffe67ca6b64736f6c634300080f0033",
    "sourcePath": "/home/shahrukh/Desktop/Work/MintHouse/Whiskey_Audit _V2_Foundry/src/Gemstone.sol",
    "compiler": {
        "name": "solc",
        "version": "0.8.15+commit.e14f2714"
    },
    "functionHashes": {
        "isEligibleToMintGoblet(address)": "33c091e6",
        "isGemstoneAvailable(uint256)": "a3eee32d",
        "isGemstoneMinted(address,uint256)": "5ce4e64f"
    },
    "gasEstimates": {
        "creation": {
            "codeDepositCost": "231400",
            "executionCost": "infinite",
            "totalCost": "infinite"
        },
        "external": {
            "isEligibleToMintGoblet(address)": "infinite",
            "isGemstoneAvailable(uint256)": "8983",
            "isGemstoneMinted(address,uint256)": "infinite"
        },
        "internal": {
            "addToCustomerLookupTable(address)": "infinite",
            "addToRedeemedWithDefault(uint256)": "infinite",
            "addToWhitelist(address,uint256)": "infinite",
            "getAddressesOfAllCustomers()": "infinite",
            "getOwnerAddress()": "infinite",
            "getPurchases()": "infinite",
            "getPurchasesOfUser(address)": "infinite",
            "getTotalNumberOfPurchases()": "infinite",
            "initBundleWhitelist()": "infinite",
            "initGemstones()": "infinite",
            "isCustomerWhiteListed(address,uint256)": "infinite",
            "isGemRedeemedForId(uint256)": "infinite",
            "recordPurchase(address,uint256)": "infinite",
            "redeemGemstone(address,uint256)": "infinite",
            "redeemPurchasesForGoblet(address)": "infinite"
        }
    }
}